:020000040800F2
:1000000020060020D1000008AD1A00086F19000872
:1000100000000000000000000000000000000000E0
:100020000000000000000000000000001B1B000892
:100030000000000000000000F51A00081D1B000869
:10004000E3000008E3000008E3000008E300000804
:10005000E300000831030008590300088103000889
:10006000E3000008E3000008D5020008E3000008F0
:10007000E3000008E3000008E3000008F11B0008AB
:10008000E3000008E300000800000000E3000008AF
:10009000E3000008E3000008E3000008E3000008B4
:1000A000E3000008E3000008F91A0008E300000874
:1000B000E300000800000000E30000080348854654
:1000C00000F03EF8004800474927000820060020BD
:1000D0000448804704480047FEE7FEE7FEE7FEE7E6
:1000E000FEE7FEE7951B0008BD00000830B50B4693
:1000F000014600202022012409E00D46D5409D4202
:1001000005D31D469540491B254695404019154687
:10011000521E002DF1DC30BD70B5002425460028AC
:1001200001DA01244042002901DA01254942FFF7A2
:10013000DDFFAC4200D04042002C00D0494270BDEF
:10014000064C0125064E05E0E36807CC2B430C3C2A
:1001500098471034B442F7D3FFF7B4FF0C290008D6
:100160002C29000870B5044600688168490720D52D
:10017000816810264907002905DA8168890702D4B9
:1001800081683143816000F04DFE05460DE000F0CE
:1001900049FE401B022808D9606C30436064A06CA3
:1001A00001210843A064084670BD206880684007AC
:1001B000EDD4002070BDF8B5044600688168890759
:1001C000890F012928D10168C90702D1C168090432
:1001D00022D58168052211401025012601290FD161
:1001E000816802221143816021680320086000F0C9
:1001F00019FE07460CE000F015FEC01B022807D9C7
:10020000606C28436064A06C3043A0640120F8BD9A
:1002100020688068C007EED10020F8BDF8B504461C
:1002200000200090206881688907890F012905D185
:100230000168C9072CD1C168090429D48168154A0D
:10024000102611400125002915D1816829438160BC
:10025000124811490068FFF749FF00E0401E009076
:100260000028FBD100F0DEFD07460CE000F0DAFDCF
:10027000C01B022807D9606C30436064A06C28431F
:10028000A0640120F8BD20680068C043C007EDD11C
:100290000020F8BD1700008040420F002C00002015
:1002A00010B5446A204600F0FBFA0120207110BD11
:1002B00010B5446A2069042108432061204600F0FB
:1002C00015FB0120207110BD10B5406A00F0FCFA4A
:1002D00010BD000010B5024800F045FC10BD000044
:1002E0005801002010B50446006805494018142143
:1002F000FFF7FCFE800020640248E06310BD0000B0
:10030000F8FFFDBF0000024030B5056C0124AC4091
:10031000C56B6C60046863604368102B036803D08E
:1003200099600068C26030BD9A600068C16030BDED
:1003300010B5084C6069C00703D00120606101F06E
:100340009FFD6069800703D50220606101F098FD80
:1003500010BD00000004014010B5084C6069400762
:1003600003D50420606101F08BFD6069000703D5AF
:100370000820606101F084FD10BD00000004014010
:1003800010B52F4C6069C00603D51020606101F0E4
:1003900077FD6069800603D52020606101F070FD63
:1003A0006069400603D54020606101F069FD606925
:1003B000000603D58020606101F062FD6069C00520
:1003C00004D5FF200130606101F05AFD60698005AD
:1003D00004D501204002606101F052FD60694005D2
:1003E00004D501208002606101F04AFD60690005CA
:1003F00004D50120C002606101F042FD6069C004C3
:1004000004D501200003606101F03AFD60698004B9
:1004100004D501204003606101F032FD60694004B1
:1004200004D501208003606101F02AFD60690004A9
:1004300004D50120C003606101F022FD10BD000061
:1004400000040140F8B500250446403400952278A8
:10045000012A3BD00122227003689E68760776D479
:100460003F4F4E68BE4254D09E6A0F78BA40164342
:100470009E620123826B1B079A421FD0012A1DD066
:10048000022A1BD0032A19D0042A17D0052A15D016
:10049000062A13D0072A11D002688B68566976079E
:1004A000760FB3420AD05369DB08DB005361006862
:1004B00042690B7A5B075B0F1A4342610868102898
:1004C00006D0112804D0122802D045E00220F8BD41
:1004D000244A9368102809D011280AD00120000668
:1004E000034393600868102806D035E00120C0055A
:1004F000F6E701208005F3E71C481B490068FFF779
:10050000F5FD0A21484300E0401E00900028FBD181
:1005100022E0986A0E78B2409043986208681028EA
:1005200003D0112801D0122816D10E498A6810284C
:1005300007D0112808D00120000682438A600BE012
:1005400005E00120C005F8E701208005F5E7416CD2
:100550002022114341640125002020702846F8BD67
:10056000011000000027014040420F002C00002035
:100570000068006C70470000F8B5002504460028AC
:1005800003D0606C002802D008E00120F8BD0020F4
:10059000A06440210855204600F0A8F8606C1022A5
:1005A000104270D12068816849076CD4616C1301D6
:1005B000994302231943616481688907890F0129DE
:1005C00005D10168C9070FD1C16809040CD4C168FD
:1005D0001826B143A6683143C16020680169666886
:1005E00089008908314301612068C1683D4E31406E
:1005F000C160A069E1698003C9030843216A4E0311
:100600003043666B012E02D00126360300E000263F
:100610003043E66830432669022E08D00026304376
:10062000266B76003043666A012E02D00BE004266A
:10063000F5E7002928D0616C202631436164A16C64
:1006400001263143A164A16A0E46FF3EC23E02D09C
:10065000E66A314308432168CE680643CE6001262E
:10066000A16B3607B14213D0012911D002290FD056
:1006700003290DD004290BD0052909D0062907D05C
:10068000072905D010E028E0012109040843DAE732
:1006900021684E69F608F6004E6121684E69278F81
:1006A0007F077F0F3E434E612168C9680E4E31407F
:1006B000814207D10020A064606C80088000401C4B
:1006C000606408E0606C984310436064A06C012192
:1006D0000843A06401252846F8BD606C104360649F
:1006E000F8E700001902FEFFE7FF3F8308B5006846
:1006F0000549884207D10548826941150A4382614C
:1007000080690840009008BD0024014000100240AC
:10071000F8B504464069254640350E4608280BD0FA
:100720002068C068C00709D0606C2021084360645D
:10073000002028700120F8BD082700E00C2700F0F9
:1007400071FB009011E0701C0FD0002E05D000F05E
:1007500069FB0099401AB04207D9606C0421084334
:100760006064002028700320F8BD206800683842CB
:10077000E9D0606C01214902084360642068C168C7
:1007800009058A0F0C21002A1AD1226A002A17D1E2
:100790000268120714D5826853070122002B08DB78
:1007A00043688B434360606C13029843104360645A
:1007B00006E0606C202318436064A06C1043A064C2
:1007C000A069002801D1206801600020F8BD000068
:1007D00070B50446216800208968490721D4254660
:1007E0004035297801291CD001212970E1690129AE
:1007F00004D02046FFF712FD002811D1616C0A4A8F
:100800001140FF220132114361640021A16429706B
:1008100022681C21116021688A6804231A438A60B7
:1008200070BD022070BD0000FEF1FFFF70B50546EF
:10083000044640352878012807D001262E7020462E
:10084000FFF790FC002802D00CE0022070BD20468B
:10085000FFF7B1FC002805D1616CFF220132914302
:10086000314361640021297070BD70B54379012B5B
:1008700013D00125457102230371066834683E23B5
:1008800093409C430B6849680B4393402343336078
:10089000057100214171084670BD022070BD000045
:1008A00000200749024643005B18401C1A841028A8
:1008B000F9DB04480321C180012141617047000038
:1008C00018010020000000200020064A01464300D5
:1008D000401CD1521028FADB03490120C88048612E
:1008E000704700001801002000000020704770B51C
:1008F000040004D020790025002802D005E0012062
:1009000070BD6571204600F007F802202071256156
:1009100001202071002070BDF0B50546006819491E
:1009200087B088422BD11848C26941040A43C2618A
:10093000C069102708400097059003200190002609
:10094000092069460296C00600F0BEF9104C0F4817
:10095000A66081C4802060604000A0608000E060EC
:100960002020666120610A48083C00F04BF900280D
:1009700003D08A2107A001F0D7FEAC60656207B002
:10098000F0BD000000740040001002403000024042
:10099000580100202E2E2F5372632F73746D333243
:1009A000663078785F68616C5F6D73702E630000ED
:1009B00030B54279012A0CD0012242710223037121
:1009C00003681D6814468C4025431D60002902D031
:1009D0000AE0022030BD01680B689B061B0F0F2B3D
:1009E00002D14B6813434B600271002141710846EC
:1009F00030BD0000FFB5044681B0407900250A995A
:100A0000012818D00126667102202071A2681F48B3
:100A10009062A2681E48D062A2681E4810632068D7
:100A2000026833031A430260002907D0042908D062
:100A300008290BD108E0022005B0F0BD2568083573
:100A400004E025680C3501E0256810352068016850
:100A500001277F0339430160A0682A46049B03995C
:100A600000F0FCF82068016839430160A0682A465C
:100A7000049B039900F0F2F820680168029A9640FE
:100A80003143016000206071D6E70000A102000838
:100A9000C9020008B102000830B5026814680123D9
:100AA0001D468D40AC4314600371002030BD70B50D
:100AB000044622680020156801231B038B409D43D8
:100AC00015602268136801252E468E40B3431360DB
:100AD00000290CD1A06800F00CF821680A686B03AB
:100AE0009A430A60002802D00421217170BD25714B
:100AF00070BD01680A680E239A430A6001680A689B
:100B0000520852000A600121036C0A469A40C36BE6
:100B10005A6020304170002101700846704770B55E
:100B20000024014620314A78022A03D0042181633F
:100B3000012416E0026813680E25AB4313600268B7
:100B400013685B085B0013600122056C1346AB4021
:100B5000C56B6B604A7000220A70416B002900D09F
:100B60008847204670BDF0B4C16B0D6801680C6801
:100B70000422066C1346B3402B420DD063070BD5FD
:100B80000B689B0602D40B6893430B60016C8A4090
:100B9000C16B4A60C16A19E00227B74002462F4084
:100BA00001232032002F15D0A70713D50C68A40607
:100BB00004D40C680A25AC430C605370036C02210A
:100BC0009940C36B596000211170816A002916D0C9
:100BD000F0BC08470827B7402F4210D024070ED595
:100BE0000C680E25AC430C60046C1946A140C46B24
:100BF00061608363537000211170016BE6E7F0BC04
:100C00007047000070B5040024D002202146203136
:100C10000D464870226811680F48A368014060685B
:100C200026691843E3683343184363691843A3698B
:100C30001843E3691843084310602046FFF752FB4E
:100C40000020A062E06220636063A06301216970FC
:100C5000287070BD012070BD0FC0FFFFF8B50446BD
:100C60008C46203001780025012909D00126067024
:100C700041780027012905D0077002252846F8BDD4
:100C80000220F8BD02214170A7632068016849086D
:100C90004900016061462046FFF736FBE06A002804
:100CA0002068016802D00E22114306E00A22114397
:100CB0000160206801680422914301602068016896
:100CC00031430160DAE70000F8B500238DE001242C
:100CD0009C40A44622407DD04C68022C01D0122CAE
:100CE0000CD1DC08A40027183C6A5D07ED0E0F2626
:100CF000AE40B4430E69AE4026433E6205685E00D6
:100D00000324B4400F79A543BF07BF0FB7402F435B
:100D100007604D68012D05D0022D03D0112D01D0A3
:100D2000122D0ED18568CF68A543B7402F43876049
:100D300047686546AF430D79ED06ED0F9D403D4395
:100D40004560C568A5438C68B4402C43C4604C68BA
:100D5000E40049D5284CA56901263543A561A4695D
:100D60009D0834400094254CAD002F19BC689D07A8
:100D70002E0F0F25B540AC430925ED06A84201D141
:100D800000250FE01E4DA84201D101250AE01D4DAE
:100D9000A84201D1022505E01B4DA84201D103253F
:100DA00000E00525B5402543BD60184C25684E6818
:100DB0009543F60300D51543256065684E68954355
:100DC000B60300D515436560A5684E689543F602E5
:100DD00002D500E008E01543A560E5684E6895433C
:100DE000B60200D51543E5605B1C0A681446DC407A
:100DF00000D06CE7F8BD0000001002400000014088
:100E00000004004800080048000C004800040140AD
:100E100042694A4042617047002A01D081617047AF
:100E20008162704701480068704700003000002070
:100E300002480168491C0160704700003000002032
:100E400010B506480168102211430160002000F02F
:100E500007F800F017F8002010BD00000020024045
:100E600010B5044600F0CEF87D21C900FFF73EF929
:100E700000F0B6FB00222146501E00F029F80020A9
:100E800010BD000008B50C48816901221143816141
:100E900080691040002200901146501F00F018F8A1
:100EA00000221146901E00F013F800221146501E39
:100EB00000F00EF808BD000000100240C106C90E87
:100EC00001208840014908607047000000E100E00F
:100ED00010B500F0EDFD10BDF8B5054644480E46CE
:100EE0000068C007C00FB0420AD2414801684908F3
:100EF0004900314301600068C007C00FB0425CD1B7
:100F000028783C4C800705D56068F0218843A968A3
:100F1000084360602878C0073FD06868012813D074
:100F20002168022813D08907002946DA61688908F8
:100F3000890001436160FFF775FF69680746012971
:100F40000DD0022917D024E021688903ECE789013C
:100F5000EAE7FFF767FFC11B2748814217D860689F
:100F60000007800F0128F4D117E0FFF75BFFC11BDA
:100F7000214881420BD860680007800F0228F4D115
:100F80000BE0FFF74FFFC11B1B48814201D9032033
:100F9000F8BD60680007800FF3D115480168C907E4
:100FA000C90FB1420BD901684908490031430160BA
:100FB0000068C007C00FB04201D00120F8BD2878FA
:100FC000400706D56068072109028843E96808439D
:100FD000606000F01DF86168084A0906090F515C5D
:100FE000C840074908600020FFF73AFF0020F8BD1D
:100FF000002002400010024088130000FC28000876
:101000002C00002001480068704700002C000020E0
:1010100010B512A30FCB88B06C460FC413A30FCB2F
:101020000FC416494A680C20134603401448042B89
:101030000FD0082B0DD193021B0F6C46E45CC96ADC
:1010400004AB0907090F595CD20304D5FFF74EF82A
:10105000604308B010BD0B486043FAE70203040583
:10106000060708090A0B0C0D0E0F101001020304ED
:1010700005060708090A0B0C0D0E0F1000100240A0
:1010800000127A0000093D00FEB504460078D04DFC
:10109000C00747D068680007800F012807D068683C
:1010A0000007800F022809D16868C00306D52868A8
:1010B000800337D5606800287ED033E00120626865
:1010C0000004012A11D08100002A01D0052A10D085
:1010D0002A6882432A60286888432860606800285C
:1010E00014D0FFF79FFE06460CE0296801432960F3
:1010F000F4E72A680A432A60F7E7FFF793FE801BAC
:1011000064286FD828688003F7D50BE0FFF78AFEC4
:10111000064604E0FFF786FE801B6428F1D82868A5
:101120008003F7D420780126800700283BDA68681E
:101130000007800F07D068680007800F022809D1D8
:101140006868C00306D42868800715D5E0680128C0
:1011500032D111E0E0680028286815D030432860BB
:10116000FFF760FE074604E0FFF75CFEC01B0228A5
:10117000C7D828688007F7D52868F82188432169EF
:10118000C900084328600EE0400840002860FFF7CF
:1011900049FE074604E0FFF745FEC01B0228B0D811
:1011A00028688007F7D42078000724D5E069002854
:1011B000686A10D0304300E008E16862FFF732FE51
:1011C000074604E0FFF72EFEC01B022899D8686A84
:1011D0008007F7D50FE0400840006862FFF722FE65
:1011E000074605E09DE0FFF71DFEC01B022888D8DA
:1011F000686A8007F7D4207804274007002860DA5F
:1012000000200190E869C00008D4E969B8060143EC
:10121000E961E96901400120009101906D48016890
:10122000C90511D40168821511430160FFF7FAFD69
:10123000009005E0FFF7F6FD0099401A642870D889
:1012400064480068C005F5D5A06801280AD00028C8
:1012500001D0052810D0286A400840002862286A7A
:10126000B84301E0286A30432862A068002812D001
:10127000FFF7D8FD00900AE0286A38432862F1E7BA
:10128000FFF7D0FD0099411A5348814249D8286A96
:101290008007F5D50DE0FFF7C5FD009006E0FFF7EC
:1012A000C1FD0099411A4C4881423AD8286A80070A
:1012B000F5D40198002804D0E96901200007814392
:1012C000E9612078C00635D5606901280CD0401D41
:1012D000686B23D038436863686B400840006863DC
:1012E000FFF7A0FD064622E0686B38436863686B31
:1012F00030436863FFF796FD064604E0FFF792FD72
:10130000801B02285BD8686B8007F7D5686BF821D3
:101310008843A169C900084368630BE0B843686368
:10132000F4E74CE0FFF77EFD801B022847D8686B8E
:101330008007F7D4206A002846D069680907890F1A
:10134000022943D0012636060228286805D0B0437A
:101350002860FFF767FD044633E0B0432860FFF7DD
:1013600061FD074604E0FFF75DFDC01B022826D89B
:1013700028688001F7D4E86AE16A0009000108439F
:10138000E862616AA06A084369683D2212049143D9
:1013900008436860286830432860FFF743FD04462F
:1013A00004E0FFF73FFD001B022808D828688001F1
:1013B000F7D509E0FFF736FD001B022801D903200D
:1013C000FEBD28688001F5D40020FEBD0120FEBDD1
:1013D00000100240007000408813000070470000B9
:1013E000F8B504460068426881684B0605D4CB070F
:1013F00003D0530601D5E16C04E08B0705D5130635
:1014000003D5216D20468847F8BDFF23613319427B
:10141000FAD09306F8D523464D064033002D09DA5D
:101420005D7F032D3CD0256E042635432566C568B7
:10143000856800958E060125002E08DA266E2E435B
:1014400026668668009606684027BE430660C80583
:1014500006D5206E08210843206620688068009029
:10146000206E0028D0D020684168E026B14341605A
:101470005D77900718D0206841688908890041602D
:10148000A06D0B4D002803D04563A06DFFF747FB0F
:10149000606D0028B8D04563606DFFF740FBF8BD74
:1014A000C16880680090F8BD2046FFF797FFF8BD3F
:1014B000091B0008F8B5040007D000262546403572
:1014C000A662687F002802D005E00120F8BD2E77D3
:1014D000204600F04BF802236B7720680168402219
:1014E000914301600721E0680902884201D9002286
:1014F00001E0012212030F273F02B84202D08842C6
:1015000000D0A662276B002F05D1884201D9236342
:1015100001E001202063A1686068636908432169D4
:10152000194308430123A1695B0219400843E1699B
:101530000843216A0843A16A084321680860616B77
:10154000606AA36908431B0C0427E1683B40194308
:1015500008432168104348602068C1697A029143BA
:10156000C1612666012068770020F8BD00B50068DB
:10157000114987B088421DD11048C26909140A4335
:10158000C261C06908400590072040030090022016
:1015900000210190032002910491039069460848BC
:1015A000FFF792FB002211461A20FFF791FC1A2048
:1015B000FFF784FC07B000BD003800400010024077
:1015C00000040048042204490428086902D090431A
:1015D000086170471043FBE700E000E0704700003F
:1015E000094910B5401E884201D9012010BD074CA1
:1015F00060610321081F00F05BFA0020A061072052
:101600002061002010BD0000FFFFFF0000E000E0AF
:1016100010B5FFF7E3FF10BD7047704770B5024685
:101620002032137F012B1BD0012313770224547720
:10163000046865687026B5436560046865680E686F
:10164000354365600468A5688026B543A5600068D9
:10165000846849680C43846053770020107770BD1C
:10166000022070BD70B5040005D025462035687F86
:10167000002802D006E0012070BD00202877204617
:1016800000F00AF802206877211D206800F0B8FAFF
:1016900001206877002070BD08B500680121890726
:1016A00088420FD10848C16901221143C161C06954
:1016B00010400022009011460F20FFF709FC0F2078
:1016C000FFF7FCFB08BD00000010024002220146AB
:1016D00020314A770268136801200343136048777A
:1016E0000020704702210246203251770168086AC3
:1016F000074B184207D1086A9B10184203D10868AB
:10170000400840000860012050770020704700002A
:1017100011110000F8B5054604462035287F012840
:1017200017D001272F7702206877226890687726E4
:10173000FF23B0431B02984390600868502837D0BD
:101740000EDC202857D006DC00284ED0102840D1CF
:101750004EE00220F8BD302850D0402839D13CE07E
:1017600060282DD0702817D001221203801A0ED0C5
:1017700090422ED1CB684A688968206800F08AFAC6
:1017800020688168012292031143816021E0206872
:101790008168C908C900F8E7CB684A688968206889
:1017A00000F078FA21688868B0433043886010E020
:1017B000CA684968206800F080FA5021206806E075
:1017C000CA684968206800F089FA6021206800F042
:1017D0006CFA6F7700202877F8BDCA6849682068DE
:1017E00000F06BFA40212068F1E700212068EEE765
:1017F00010212068EBE720212068E8E730212068ED
:10180000E5E7704770B50446006801690025C943E3
:101810008907002915DBC168C943890711D4E91E6E
:10182000016101202077206880698007204602D06E
:10183000FFF7E7FF04E000F096F8204600F094F888
:10184000257720680169C943490717D4C168C9438E
:10185000490713D40421C94301610220207720687D
:1018600080698005800F204602D0FFF7CAFF04E0A0
:1018700000F079F8204600F077F8257720680169B4
:10188000C943090716D4C168C943090712D40821FE
:10189000C9430161042020772068C0698007204681
:1018A00002D0FFF7AEFF04E000F05DF8204600F044
:1018B0005BF8257720680169C943C90617D4C16858
:1018C000C943C90613D41021C943016108202077F8
:1018D0002068C0698005800F204602D0FFF791FF85
:1018E00004E000F040F8204600F03EF8257720683C
:1018F0000169C943C90708D1C168C943C90704D1EF
:10190000891E0161204600F030F820680169C94352
:10191000090609D4C168C943090605D48021C94311
:1019200001612046FFF778FE20680169C943490636
:1019300009D4C168C943490605D44021C94301619E
:10194000204600F013F820680169C943890609D4CC
:10195000C168C943890605D42021C94301612046D5
:10196000FFF75BFE70BD7047704770477047FEE73A
:101970000EB51548134901600021416081600122C4
:1019800004230C300EC0016041608160FF23C16000
:10199000C23341610361C26181611838FEF7ECFD19
:1019A000002800D0FEE712200090012000030190E3
:1019B0000004029069460448FEF744FD002800D068
:1019C000FEE70EBD0024014038000020F0B51D48A0
:1019D00087B04269012189050A43426142690A4090
:1019E0000592426949110A43426142690A400592DF
:1019F000426949000A434261406909270840FF06DD
:101A000005900022C0213846FFF706FA0E4E00224C
:101A100031460E48FFF700FAC0200024012500904F
:101A200002946946019503943846FFF74DF90294F4
:101A300069460648009601950394FFF745F907B0FB
:101A4000F0BD000000100240060C00000004004839
:101A500000B50121134887B089070160002141606A
:101A60008160114A0161C2608161FFF7FBFD0028BE
:101A700000D0FEE701200003009069460948FFF707
:101A800049FE002800D0FEE7202004908020059029
:101A900004A90448FFF7C2FD002800D0FEE707B004
:101AA00000BD00009800002087080000704700007B
:101AB0008307FF22DB0E9A408907090E9940002810
:101AC0000BDA0007000F0838830808489B00181835
:101AD000C36993430B43C3617047830804489B0069
:101AE0001B181868904308431860704700ED00E029
:101AF00000E400E07047000010B50248FFF770FCFA
:101B000010BD00009C01002010B5406A0021462253
:101B10001152C187FFF762FC10BD704710B5FFF787
:101B200087F9FFF775FD10BD30B591B01120009019
:101B30000120039001900590102006900003099069
:101B40000001022500240A9008950B946846FFF7CF
:101B50009BFA002800D0FEE707200C900E9401218C
:101B60000D950F940CA8FFF7B7F9002800D0FEE7F9
:101B7000FFF748FA7D21C900FEF7B8FAFFF730FDFC
:101B80000420FFF71FFD00221146501EFFF7A0F9A9
:101B900011B030BD13480168012211430160416852
:101BA000114A114041600168104A1140016001680A
:101BB000012292049143016041683F221204914343
:101BC0004160C16A09090901C162016BFF225432F7
:101BD00091430163416B49084900416300218160E1
:101BE00070470000001002400CB8FFF8FFFFF6FE3F
:101BF00010B50248FFF706FE10BD00009800002057
:101C0000F0B502681D4B0124A4071D4D984203D076
:101C1000A04201D0A84203D17026B2434E6832439D
:101C2000184E194F98420DD0A0420BD0A84209D0AF
:101C3000164CA04206D0B04204D0B84202D0144C98
:101C4000A04204D103242402A243CC68224380246E
:101C5000A2434C69224302608A68C2620A688262B7
:101C6000984206D0B04204D0B84202D0084A90420E
:101C700001D10969016301214161F0BD002C0140DE
:101C800000040040004001400044014000200040AA
:101C90000048014030B58468FF252D021B02134324
:101CA000AC430B432343836030BD826870239A4367
:101CB0000A4307210A438260704730B5036A046A09
:101CC0006408640004628469F025AC431201224375
:101CD0000A24A3430B438261036230BD30B5036A1B
:101CE0001024A34303628469036A0F252D031203A2
:101CF000AC432243A024A34309011943826101623A
:101D000030BD0000F7B582B015460C0002D0601E51
:101D1000044213D0002701263046B840204206D0A6
:101D200081B22A460298FFF7EDFF00287ED17F1C82
:101D3000FFB2102FF0D3002005B0F0BD4D48016870
:101D4000214273D1406820427ED1FF210131601AC7
:101D50008C422ED012DC102C2BD008DC012C75D03C
:101D6000022C73D0042C73D0082C6DD170E0202C81
:101D70001FD0402C1DD0802C66D11AE00F221202F9
:101D8000811A904215D009DCFF38401E11D0FF386F
:101D9000FF38801E0DD00121890208E001200003D8
:101DA000081A06D001214903401A02D0490088428E
:101DB0004AD10727012D4DD0002D4DD00020002104
:101DC0000B460A46019100902146029800F034F932
:101DD000204600F0D3F8C6B2029800F0D8F8C3B29B
:101DE00025489C468169012211438161B10823483D
:101DF000890008188268B107090F0F238B409A43A6
:101E00008260826863468B401A4382601948016889
:101E1000A14301604168A143416001682143016021
:101E2000C168A143C1608168A14301E00CE00DE0FD
:101E30008160012D12D0002D02D0C1682143C16004
:101E40008168214381600CE0012075E70527B1E737
:101E50000627AFE70120B2E70220B0E7C1682143BF
:101E6000C160324603213846FFF732F83846FFF7A3
:101E700025F860E700040140001002400000014026
:101E8000F8B5FF21064601310801C7100025384C7E
:101E90008E421CD109204021C006FEF7B9FF601C0C
:101EA00000F00CFA601C0078400654D560880126CA
:101EB000012807D00320A0802E48668000F000F99A
:101EC000266151E02B48A68020386580F6E78642DF
:101ED00041D128486038FFF705FC264800217438B6
:101EE000FEF7E5FD234800217438FEF7D5FD26787E
:101EF000701CC0B22070042800D125701C482178C5
:101F00000830405C0122032100F0ACF900F086F9B2
:101F10007000174E184F2236315A00223846FEF70D
:101F20007BFF207801224000315A3846FEF774FFCB
:101F3000104800217438FEF73BFD0E4A2023203262
:101F40001046002194380095FEF754FD094860388A
:101F5000FFF7BCFB08E0BE4206D1E0680A30E06053
:101F6000782801DB1420E06000F0A4F8F8BD000040
:101F700000000020F800002000040048002102E0DA
:101F8000491C89B240080128FAD8084670478001E8
:101F9000000C704700B5FFF7FAFF012111308140B6
:101FA000024842691143416100BD00000010024037
:101FB000FFB58E461721C906411881B08903090E65
:101FC0000B9F94460091022F00D103270024012586
:101FD000A54071460D4227D00099164E4B00F25A8B
:101FE0002A43F252C16866000323B3400A9A994318
:101FF000B2400A43C260026861469A43B1400A4354
:1020000002606146012901D002290DD14168AAB2BE
:102010009143049AA24092B21143416081683A46CA
:102020009943B24011438160641CE4B2102CCED3BA
:1020300005B0F0BD00020020FFB582B00B9F0C9EE2
:1020400015460C0009D00298FFF7A4FF2A46214646
:10205000009701960298FFF7ABFF06B0F0BDFFB501
:1020600082B00C0024D00298FFF794FF00200121D9
:102070000F260A46824022420DD0C2089300029ADF
:102080009F183B6A4207D20E35469540AB430C9DE4
:1020900095402B433B62401C1028EAD30B990598CE
:1020A0000191009002222146049B0298FFF780FFD5
:1020B00006B0F0BD10B57021072000F0EBF910BD9F
:1020C00070B50446012040060925ED06A861094EB9
:1020D0006121304600F081FA074822460378114614
:1020E000304600F08FFA7015A8614021072000F0FB
:1020F000D1F970BD003800403400002010B5012037
:1021000040060924E406A061FF21034800F065FAB7
:1021100001214902A16110BD00380040F8B50D460B
:10212000074600F055F8284E0121304600F038FAF5
:10213000202D00D92025002F44D00020234C607092
:1021400025700320A0700020E07000F00EF93846E2
:1021500000F0BAF82178112000F09CF921781220C3
:1021600000F098F9A178E07800F0CEF80021084658
:1021700000F090F90021012000F08CF903210220E9
:1021800000F088F90021042000F084F900211C20CF
:1021900000F080F901256D060924E406A561E1211E
:1021A0003746304600F019FA2E14A661A561E221E7
:1021B000384600F012FAA661FFF77CFF00F02EF817
:1021C0000120F8BD0120B9E70038004034000020AC
:1021D0007CB5012409256602ED0600940023224601
:1021E000314628460194FFF727FF0122009400237F
:1021F000910228460194FFF71FFFAE61A006A86177
:102200007CBD012010B580060921C9068861002225
:102210000121104600F02AF910BD000010B5012080
:1022200080060924E406A0614010A061E22108486C
:1022300000F0D3F901204002A061FFF73BFF03212A
:10224000002000F027F901208002A06110BD0000ED
:102250000038004010B5FFF72DFF0221002000F0EC
:1022600019F910BD70B515460C460646FFF7C9FFB3
:10227000304600F029F805492846CD708C7021467B
:1022800000F042F8FFF7E6FF012070BD34000020A7
:1022900070B5012149060924E406A161C106064D75
:1022A000C90E284600F099F9FF21284600F095F95B
:1022B0006915A16170BD00000038004010B50446EA
:1022C000FFF71CFF207010BD10B57D2808D8054908
:1022D0004A78824204D048700146052000F0DAF8BE
:1022E00010BD00003400002010B50121890609242A
:1022F000E406A161014605220B2000F0E3F801206D
:102300008002A06110BD000010B50A460F4B0021ED
:10231000D8709A70002802D0022802D002E008216A
:1023200000E02021032A04D0022A04D0012A04D08C
:1023300005E0062002E0042000E002200143012025
:102340000143062000F0A6F810BD00003400002074
:1023500010B50446014605220A2000F0B3F8052214
:102360002146102000F0AEF810BD1CB50821002059
:1023700000F090F83F21012000F08CF803210220AA
:1023800000F088F80321084600F084F803210420B7
:1023900000F080F80221052000F07CF80E210620D4
:1023A00000F078F80E21072000F074F800210820D2
:1023B00000F070F80021092000F06CF8E72468466E
:1023C000047044708470C4700471052269460A2048
:1023D00000F078F8C2216846017041708170C170C8
:1023E0000171052269460B2000F06CF8C3210C2016
:1023F00000F050F8C4210D2000F04CF8C5210E204B
:1024000000F048F8C6210F2000F044F86846047038
:1024100044708470C470047105226946102000F075
:1024200051F80021112000F035F80021122000F0B1
:1024300031F80021132000F02DF80021142000F0C5
:1024400029F80021152000F025F80021162000F0C1
:1024500021F81121172000F01DF800211C2000F0A8
:1024600019F800211D2000F015F81CBD70B51446A8
:102470000E460546FFF70CFF0122B240002C02D0A9
:102480000243D1B201E090430146284600F002F831
:1024900070BD000070B50D46012149060924E4060F
:1024A000A161C106064EC90E3046203100F095F8F4
:1024B0002946304600F091F87015A06170BD00000B
:1024C00000380040F8B50E46012149060924E4060B
:1024D0001546A161C106074FC90E3846203100F0EC
:1024E0007CF82A463146384600F0A6F87815A061F7
:1024F000F8BD0000003800401CB500220321002870
:1025000008D001280ED0042803D100210A4800F089
:1025100063F81CBD002300910192E02109201A46B6
:10252000C00605E00023019200911A4638210348B5
:10253000FFF795FD1CBD000000300140000400487D
:102540007CB500240325134E002808D0012816D09E
:10255000042803D10021104800F03EF87CBD002380
:1025600001211A468902304600950194FFF777FD54
:1025700000231A460C2109480095019406E0002327
:1025800007211A464903304600950194FFF767FD7D
:102590007CBD0000000400480038004000080048EE
:1025A0007CB502460A4CFF25002305350948A242A6
:1025B00005D10193202300950022204605E08242A8
:1025C00005D1019300952023002200F04DF87CBD39
:1025D000003001400038004070470268520601D4C4
:1025E0000020704782689207FCD582681206F9D4F1
:1025F00001738168C907FCD081680906F9D4C068F5
:10260000C0B2704710B50468640614D511E0846840
:10261000A407FCD584682406F9D40C780473491CFB
:102620008468E407FCD084682406F9D4047B147021
:10263000521C5B1EEBD210BD03685B0612D50FE087
:1026400083689B07FCD583681B06F9D40B7803735A
:10265000491C8368DB07FCD083681B06F9D4838997
:10266000521EEDD270470000F0B59BB014468C4668
:102670001E460246294900900725219F28482D0221
:10268000284B8A420AD1826981140A438261806997
:10269000084019906046FFF72FFF0CE09A420BD1DB
:1026A000C269012189030A43C261C06908401990C7
:1026B0006046FFF745FF0395079620980190072194
:1026C00000200B910121490208970A900990069178
:1026D0000290002C08D00121012C07D00222022CEC
:1026E00006D0032C07D008E0049002E0049003E039
:1026F0000492059001E0049205910098006840243E
:102700000099A04308606846FEF7D4FE0098006870
:102710000099204308601BB0F0BD0000003001406C
:102720000010024000380040FEE702E008C8121F17
:1027300008C1002AFAD170477047002001E001C1AA
:10274000121F002AFBD170471CB5FEF779FBFFF77B
:10275000EBF9FFF73BF93A48416901221143416126
:10276000406910400022009011460A20FEF7B0FB9D
:102770000A20FEF7A3FB3449324808600846FEF7FA
:10278000B6F8002800D0FEE72420002500902A4655
:10279000694601952C48FEF768F8002800D0FEE74E
:1027A000FFF756F9FFF7E4F828480446083C21787B
:1027B000405C2021FFF7B2FC03210120FFF7A4FDBC
:1027C00020461D30FFF790FD20461830FFF7C0FD72
:1027D000012209201102C006FFF794FA1C4E0121C4
:1027E000002209033046FFF78DFA01210022490239
:1027F0003046FFF787FA00211348FEF7D9F8124A4E
:1028000020239432002110480095FEF7F3F80E487B
:102810001430FEF75BFF2078214640002231095A30
:1028200001223046FEF7F8FA00F03EF82069002851
:10283000FCD060690028F9D000F00CF8F6E7000041
:1028400000100240007400408400002008000020B6
:1028500000040048F8B51148818801291AD0104EAB
:10286000C188104D012900D020350C480024C068D3
:1028700000906700F05B009948436421FDF74CFC31
:10288000641C24B2E853102CF3DB0448002141619E
:102890000161F8BD024E203EE2E70000000000208A
:1028A000F80000201801002070B500252C461148C2
:1028B000FDF78EFF32210F48FDF72AFF0D48FDF787
:1028C00057FE401985B20B48FDF7B0FF641C052C7C
:1028D000EDDB05212846FDF709FC40040649000C04
:1028E000884205D2092001228021C006FEF794FA11
:1028F00070BD000038000020480D000000000000FE
:102900000000000001020304060708092C29000842
:1029100000000020380000002A2700086429000871
:1029200038000020E80500003A27000800000100F8
:10293000000000005F646E7864000000000000008A
:1029400000000000E7E7E7E7E77E7E7E7E7E02008C
:10295000040000040008000000127A0000000000DB
:042960000000000073
:04000005080000BD32
:00000001FF
